{"abi":[{"type":"function","name":"getFailureCounts","inputs":[],"outputs":[{"name":"","type":"uint256[6]","internalType":"uint256[6]"}],"stateMutability":"view"},{"type":"function","name":"getIncident","inputs":[{"name":"txHash","type":"bytes32","internalType":"bytes32"}],"outputs":[{"name":"reporter","type":"address","internalType":"address"},{"name":"failureType","type":"uint8","internalType":"enum RetryableIncidentRegistry.FailureType"},{"name":"fingerprint","type":"bytes32","internalType":"bytes32"},{"name":"timestamp","type":"uint256","internalType":"uint256"}],"stateMutability":"view"},{"type":"function","name":"incidents","inputs":[{"name":"","type":"bytes32","internalType":"bytes32"}],"outputs":[{"name":"reporter","type":"address","internalType":"address"},{"name":"failureType","type":"uint8","internalType":"enum RetryableIncidentRegistry.FailureType"},{"name":"fingerprint","type":"bytes32","internalType":"bytes32"},{"name":"timestamp","type":"uint256","internalType":"uint256"}],"stateMutability":"view"},{"type":"function","name":"reportIncident","inputs":[{"name":"txHash","type":"bytes32","internalType":"bytes32"},{"name":"failureType","type":"uint8","internalType":"enum RetryableIncidentRegistry.FailureType"},{"name":"fingerprint","type":"bytes32","internalType":"bytes32"}],"outputs":[],"stateMutability":"nonpayable"},{"type":"function","name":"topFailures","inputs":[{"name":"n","type":"uint256","internalType":"uint256"}],"outputs":[{"name":"types_","type":"uint8[]","internalType":"uint8[]"},{"name":"counts_","type":"uint256[]","internalType":"uint256[]"}],"stateMutability":"view"},{"type":"event","name":"RetryableIncidentReported","inputs":[{"name":"reporter","type":"address","indexed":true,"internalType":"address"},{"name":"txHash","type":"bytes32","indexed":true,"internalType":"bytes32"},{"name":"failureType","type":"uint8","indexed":false,"internalType":"enum RetryableIncidentRegistry.FailureType"},{"name":"fingerprint","type":"bytes32","indexed":false,"internalType":"bytes32"},{"name":"timestamp","type":"uint256","indexed":false,"internalType":"uint256"}],"anonymous":false}],"bytecode":{"object":"0x608060405234801561001057600080fd5b5061084e806100206000396000f3fe608060405234801561001057600080fd5b50600436106100575760003560e01c806376adc8181461005c57806379f99e51146100865780639739d1671461009b578063b8f03828146100ef578063e53d9ed714610102575b600080fd5b61006f61006a36600461061a565b610117565b60405161007d929190610633565b60405180910390f35b6100996100943660046106b1565b610363565b005b6100df6100a936600461061a565b6000602081905290815260409020805460018201546002909201546001600160a01b03821692600160a01b90920460ff16919084565b60405161007d9493929190610725565b6100df6100fd36600461061a565b610521565b61010a6105c1565b60405161007d9190610754565b606080600683111561012857600692505b60408051600680825260e082019092526000916020820160c08036833701905050905060005b600681101561019b576001816006811061016a5761016a61079b565b015482828151811061017e5761017e61079b565b602090810291909101015280610193816107c7565b91505061014e565b508367ffffffffffffffff8111156101b5576101b5610785565b6040519080825280602002602001820160405280156101de578160200160208202803683370190505b5092508367ffffffffffffffff8111156101fa576101fa610785565b604051908082528060200260200182016040528015610223578160200160208202803683370190505b5060408051600680825260e08201909252919350600091906020820160c08036833701905050905060005b8581101561035b5760008060005b60068110156102db578481815181106102775761027761079b565b60200260200101511580156102a457508186828151811061029a5761029a61079b565b6020026020010151115b156102c9578581815181106102bb576102bb61079b565b602002602001015191508092505b806102d3816107c7565b91505061025c565b50818784815181106102ef576102ef61079b565b602002602001019060ff16908160ff1681525050808684815181106103165761031661079b565b60200260200101818152505060018483815181106103365761033661079b565b9115156020928302919091019091015250819050610353816107c7565b91505061024e565b505050915091565b826103a35760405162461bcd60e51b815260206004820152600b60248201526a7478486173682d7a65726f60a81b60448201526064015b60405180910390fd5b600083815260208190526040902060020154156103f55760405162461bcd60e51b815260206004820152601060248201526f185b1c9958591e4b5c995c1bdc9d195960821b604482015260640161039a565b6040518060800160405280336001600160a01b03168152602001836005811115610421576104216106ed565b8152602080820184905242604092830152600086815280825291909120825181546001600160a01b039091166001600160a01b031982168117835592840151919283916001600160a81b03191617600160a01b836005811115610486576104866106ed565b021790555060408201518160010155606082015181600201559050506001808360058111156104b7576104b76106ed565b600681106104c7576104c761079b565b0160008282546104d791906107e0565b9091555050604051839033907f80eafd61f1364de976ff31ace64bd61f793c52a52cf309c8144f8cf77cccab8990610514908690869042906107f9565b60405180910390a3505050565b60008181526020818152604080832081516080810190925280546001600160a01b038116835284938493849384939192909190830190600160a01b900460ff166005811115610572576105726106ed565b6005811115610583576105836106ed565b815260200160018201548152602001600282015481525050905080600001518160200151826040015183606001519450945094509450509193509193565b6105c96105fc565b6040805160c08101918290529060019060069082845b8154815260200190600101908083116105df575050505050905090565b6040518060c001604052806006906020820280368337509192915050565b60006020828403121561062c57600080fd5b5035919050565b604080825283519082018190526000906020906060840190828701845b8281101561066f57815160ff1684529284019290840190600101610650565b5050508381038285015284518082528583019183019060005b818110156106a457835183529284019291840191600101610688565b5090979650505050505050565b6000806000606084860312156106c657600080fd5b833592506020840135600681106106dc57600080fd5b929592945050506040919091013590565b634e487b7160e01b600052602160045260246000fd5b6006811061072157634e487b7160e01b600052602160045260246000fd5b9052565b6001600160a01b0385168152608081016107426020830186610703565b60408201939093526060015292915050565b60c08101818360005b600681101561077c57815183526020928301929091019060010161075d565b50505092915050565b634e487b7160e01b600052604160045260246000fd5b634e487b7160e01b600052603260045260246000fd5b634e487b7160e01b600052601160045260246000fd5b6000600182016107d9576107d96107b1565b5060010190565b808201808211156107f3576107f36107b1565b92915050565b606081016108078286610703565b60208201939093526040015291905056fea26469706673582212203ed6cf697f0e45c6252838c0e7ac5072b69eb05b2e65dcc68daee03dd170485764736f6c63430008130033","linkReferences":{}},"methodIdentifiers":{"getFailureCounts()":"e53d9ed7","getIncident(bytes32)":"b8f03828","incidents(bytes32)":"9739d167","reportIncident(bytes32,uint8,bytes32)":"79f99e51","topFailures(uint256)":"76adc818"},"id":16}